:1000000035C073C04CC04BC04AC049C048C047C08F
:1000100046C045C044C043C042C041C040C000CDFE
:10002000D914F13C28E5A16C78B5509D89440902AA
:10003000120001010080320904000000FF000000EE
:1000400012010101FF00000881179F0C0601000248
:100050000001040309041603550053004200740014
:1000600069006E00790049005300500011241FBE42
:10007000CFEDCDBF10E0A0E6B0E0ECEDF7E002C0C0
:1000800005900D92A236B107D9F710E0A2E6B0E0D4
:1000900001C01D92AE39B107E1F79BD39DC3B0CF2C
:1000A000DC019FEF8FEF4EE1F0E018C02D91822729
:1000B000E82FEF70E40F3591E82FE295892F932F09
:1000C0003170E327EF709295392F9F70307E832730
:1000D000E40F359193273170932783276A9532F780
:1000E000809590958D939D9308950F931F932F93D3
:1000F000DF93CF930FB70F93B399FECFB3990BC094
:10010000B39909C0B39907C0B39905C0B39903C0A7
:1001100000E40ABFACC0C0918600DD27C957DF4F9D
:100120000BE018E128E0B39BE9CF3F934F936F9327
:1001300066B330E803C066B3432B49934427687124
:100140002627215026B32871A9F137953C3FA0F509
:100150006227615066B3687137953C3F98F5262752
:100160002150379526B328713C3F90F562276150A6
:1001700037953C3F66B36871A0F526272150379527
:100180003C3FC8F526B328716227615037953C3F44
:10019000B0F50A9566B37AF0687126272150379535
:1001A0003C3F88F526B328716227615037953C3F64
:1001B00010F22DC031C052C0612726B328713F779D
:1001C0004160C6CF3F77426066B368712127C7CFD1
:1001D0003F774460612726B32871622761503795C5
:1001E000C8CF3F7748602127316066B36871262702
:1001F00021503795C6CF3F7740616127C1CF3F7708
:1002000040622127C4CF3F7740646127C9CF3F7741
:100210004068212700C08FCF30E43ABF0B500195D2
:10022000C01BD040288121FD2DC019811F7740912E
:100230009D00141799F4293691F40091770000235A
:10024000F1F0409185004423D1F440937700409130
:10025000830040939D00C8E7D0E02BC02227209365
:1002600062006F914F913F910AB706FD45CF0F9104
:100270000FBFCF91DF912F911F910F911895C1E67C
:10028000D0E016C0217059F320916200222339F387
:1002900040918500442399F70093850020938400C2
:1002A000009186004BE0401B40938600C0E6D0E002
:1002B00001E028B3277E206117B3186128BB17BB64
:1002C00018E130E830FF212728BB379547954C3F90
:1002D000C0F530FF2127379528BB47954C3FA8F53F
:1002E00030FF21273795000028BB47954C3F78F514
:1002F00030FF21273795000028BB47954C3F48F534
:1003000030FF2127699128BB379547954C3F18F559
:1003100030FF2127379528BB47954C3F00F530FF2C
:1003200021273795479528BB4C3FD8F430FF21272C
:100330003795362F479528BB4C3FA8F40A9512F6FF
:1003400014C02127442728BBC2CF2127C5CF21278E
:10035000CBCF2127D1CF2127442728BBD7CF212797
:10036000DACF2127DFCF2127E5CF277E28BB6F916A
:100370004F913F9100E40ABFDF91CF9117B3022F55
:10038000206128BB177EDFBFDF912F91000017BBD4
:1003900008BB1F910F91189585B7836085BF8BB7F8
:1003A00080648BBF789408951F93CF93DF936091FF
:1003B0008500662309F46FC080918600CCE0D0E010
:1003C000C81BD109C957DF4F81E080936600809137
:1003D00084008D3209F051C01E818F8181111FEF81
:1003E0008881807679F58981811104C0188219820B
:1003F00082E03BC0853021F48A8180938300A9C0CC
:100400008630A9F482E0809366008B81813011F1FF
:10041000823021F1833009F09CC08A81882311F158
:10042000823009F096C086E1C6E5D0E01EC0883073
:1004300019F481E0888319C08A3009F08AC01882D3
:1004400081E013C0CE01DCD08F3F79F493E090932C
:1004500066000BC082E1C0E4D0E007C082E1CEE2DA
:10046000D0E003C084E0C2E5D0E0181708F0182FF0
:10047000D0936400C093630005C0635011F0CE01B7
:100480005DD110E01093650083EC809378001092AA
:1004900077001092850080917700811150C0809183
:1004A0006600882309F44BC09091780028E89227D1
:1004B0009093780010916500193018F4112399F188
:1004C00001C018E0833031F4612F89E790E015D145
:1004D000182F24C0E0916300F0916400813081F412
:1004E000DF0149E750E0EA019D012F5F3F4FF9012D
:1004F0008C9189938C2F841B811760F4D901F4CFE0
:1005000029E730E0D90184918D9331968A2F821B9F
:100510008117C8F3F0936400E09363008091650055
:10052000811B80936500612F89E790E0B9DD83E04E
:10053000810F80937700183010F4109266008AE0E3
:10054000B49909C08150E1F71092830010929D0088
:1005500002C080E08CCFDF91CF911F910895FB0105
:10056000442341F14150DC017D91CD0128E030E090
:1005700060E850E0A62FA72309F0C09AA09176006A
:100580000A2E00C000000A94E1F7C29AA0917600FA
:100590000A2E00C000000A94E1F7550FB1995F5F81
:1005A000C098C2986695215031092115310511F77F
:1005B0005193D6CF089580917200909173009C0161
:1005C0002F5F3F4F309373002093720020916F0094
:1005D00027FF02C0880F991F80FD286020936B00C1
:1005E0009C01232F3327269520936C0096958795A1
:1005F00080936D0044E067E670E08BE690E0AFCF5B
:10060000FC012181222309F476C0213019F486B33C
:10061000808344C03281223011F438BB6AC0432F3A
:10062000477081E090E001C0880F4A95EAF7482FB3
:10063000233029F498B38095892388BB5AC024308D
:1006400021F498B3982B98BB54C02D3011F437BBCC
:1006500012C0253059F4309376002481222311F002
:10066000482F406285E287BB48BB43C0263019F45F
:1006700017BA18BA3EC088B38823D9F1273039F4A5
:1006800044E0BF01CF0102966ADF84E008952E3076
:1006900039F441E0BF01CF01029661DF81E00895A6
:1006A000283039F4828180937500838180937400AF
:1006B00020C08481958190937300809372002930CB
:1006C00011F480E203C02B3029F480EA80936F009C
:1006D0008FEF0895828193819093710080937000D1
:1006E0002A3011F480E403C02C3019F480EC80939C
:1006F0006F0080E0089588E00895EF92FF920F93D5
:100700001F93CF93DF931F92CDB7DD278C01862FE8
:1007100078019E2D901B981748F489834CDF9091A7
:100720006A00F70191937F018981F3CF0F90DF91E8
:10073000CF911F910F91FF90EF900895CF92DF928C
:10074000EF92FF920F931F93CF93DF937C01D62EEE
:10075000EC01E0E6CE2E8C2F8E198D1588F589914F
:1007600080936E0028DF80916B008C2580936B0056
:1007700000E010E080917000909171000817190757
:1007800050F744E067E670E08BE690E0E8DE8091A9
:100790006A0090916E00891308C0909175008917C6
:1007A00021F0909174008913D6CF2091760030E02B
:1007B00075E0220F331F7A95E1F7020F131FDACF8E
:1007C000DF91CF911F910F91FF90EF90DF90CF902D
:0C07D0000895E2DDE9DDFECFF894FFCFD4
:0207DC00D25AEF
:00000001FF
